:020000020000FC
:1000000000E00EBF0FE50DBF00E018ED1CBF06BFFE
:1000100000E003B907E001B900E002B9000004D133
:1000200000E202A900E001E102AB2ED104D00150B0
:10003000E9F7D0D0FBCF0F9302E4B3D0E9D0015061
:10004000E1F70F9108950F931F930FEF12E4A9D0DA
:10005000DFD001501040D9F71F910F9108950F93F1
:100060001F932F930FEF1FEF22A10150104020404C
:10007000E1F72F911F910F9108950F931F9300E0C7
:1000800005BF03E00BBB00E00CBB06EC0DBB0CB3E3
:100090000074E9F709B300A901E005BF1F910F91B2
:1000A00008950F931F932F9308E010E0E6DF20A13F
:1000B0002170110F122B0F9302A10F9301E002A9DF
:1000C000CEDF0F9102A90F91015081F711A92F9155
:1000D0001F910F9108950F931F932F933F930CA19E
:1000E0001DA1202F210F322F007810782078212B8E
:1000F0001323003019F4103039F002C0203021F4FD
:100100001DA120E0211B2DA90CA11DA1010F0CA9EF
:100110003F912F911F910F9108950F931F932F934C
:100120003F9304A117A1202F210F322F00781078C0
:100130002078212B1323003019F4103039F002C03D
:10014000203021F417A120E0211B27A904A117A129
:10015000010F04A93F912F911F910F9108950F93C3
:100160001F932F933F9305A118A1202F210F322F0A
:10017000007810782078212B1323003019F41030E8
:1001800039F002C0203021F418A120E0211B28A959
:1001900005A118A1010F05A93F912F911F910F9162
:1001A00008950F931F932F9320E009A113A1101717
:1001B00008F421600AA114A1101708F422600BA111
:1001C00015A1101708F4246022B900002F911F9187
:1001D0000F9108950F9303A10CA906A10DA97BDF30
:1001E0000CA103A90DA106A904A10CA907A10DA9A1
:1001F00072DF0CA104A90DA107A905A10CA908A1F2
:100200000DA969DF0CA105A90DA108A90F910895F9
:100210000F9309A1015009A90AA101500AA90BA134
:1002200001500BA90F9108950F933BDF01A103A982
:1002300038DF01A104A935DF01A105A932DF01A141
:100240000F7008500030D1F306A92BDF01A10F7009
:1002500008500030D1F307A924DF01A10F70085026
:100260000030D1F308A91DDF01A10F770F5B09A9A9
:1002700018DF01A10F770F5B0AA913DF01A10F7728
:100280000F5B0BA90F9108950F931F932F933F932B
:1002900002A30EA901E40FA90CD011A320A330E002
:1002A00001E8100F231F12AB3F912F911F910F9167
:1002B00008950F931F932F933F934F935F936F93E3
:1002C00008E01FA12EA13FA140E050E060E020FF28
:1002D00002C0530F641F2695330F440F17FF01C050
:1002E0004160110F015099F760AB51AB6F915F9175
:0C02F0004F913F912F911F910F910895A5
:00000001FF
